:020000040800F2
:1000000018350120F9020008010300080303000865
:1000100005030008070300080903000800000000AA
:10002000000000000000000000000000390200088D
:100030000D0300080000000095020008BD0F000835
:100040001303000813030008130300081303000838
:100050001303000813030008130300081303000828
:100060001303000813030008130300081303000818
:100070001303000813030008130300081303000808
:1000800013030008130300081303000813030008F8
:1000900013030008130300081303000813030008E8
:1000A00013030008130300081303000813030008D8
:1000B00013030008130300081303000813030008C8
:1000C00013030008130300081303000813030008B8
:1000D00013030008130300081303000813030008A8
:1000E0001303000813030008130300081303000898
:1000F0001303000813030008130300081303000888
:100100001303000813030008130300081303000877
:100110001303000813030008130300081303000867
:100120001303000813030008130300081303000857
:100130001303000813030008130300081303000847
:100140001303000813030008130300081303000837
:100150001303000813030008130300081303000827
:100160001303000813030008130300081303000817
:100170001303000813030008130300080000000025
:10018000130300081303000800F002F800F044F81D
:100190000AA090E8000C82448344AAF10107DA45E2
:1001A00001D100F039F8AFF2090EBAE80F0013F0F0
:1001B000010F18BFFB1A43F001031847982F0000E6
:1001C000B82F0000103A24BF78C878C1FAD8520777
:1001D00024BF30C830C144BF04680C6070470000C1
:1001E0000023002400250026103A28BF78C1FBD840
:1001F000520728BF30C148BF0B6070471FB502F0DF
:1002000097FF9DE8030000F0B3FC00F0DBF91FBD91
:1002100010B500F040FA10BD00F070FA1146FFF77B
:10022000EDFF00F0D3FF00F073FC03B4FFF7F0FF25
:1002300003BC00F00FFE00002C4B19680868B0E802
:10024000F04F80F30988BFF36F8F4FF0000080F309
:10025000118870470000000008480068006880F3BB
:1002600008884FF0000080F3148862B661B6BFF3CF
:100270004F8FBFF36F8F00DF00BF00BF08ED00E0BE
:10028000DFF80C00016841F470010160704700BFA5
:1002900088ED00E0EFF30980BFF36F8F134B1A680E
:1002A0001EF0100F08BF20ED108A20E9F04F1060FB
:1002B00009B44FF0500080F31188BFF34F8FBFF3A4
:1002C0006F8F01F0AFFF4FF0000080F3118809BC81
:1002D00019680868B0E8F04F1EF0100F08BFB0ECC6
:1002E000108A80F30988BFF36F8F704704000020E5
:1002F000EFF3058070470000094880470948004730
:10030000FEE7FEE7FEE7FEE7FEE7FEE7FEE7FEE7C5
:10031000FEE7FEE704480549054A064B7047000022
:10032000F10F000889010008182F0120183501205D
:1003300018310120183101200FB4044910B503AA67
:10034000029800F0BDF810BC5DF814FB0C2E0120E3
:10035000032A40F2308010F0030C00F0158011F8F1
:10036000013BBCF1020F624498BF11F801CB00F8C9
:10037000013B38BF11F8013BA2F1040298BF00F81D
:1003800001CB38BF00F8013B11F0030300F0AA8055
:10039000083AC0F0088051F8043B083A51F804CB01
:1003A000A0E80810F5E7121D5CBF51F8043B40F8C7
:1003B000043BAFF30080D20724BF11F8013B11F8D2
:1003C00001CB48BF11F8012B24BF00F8013B00F816
:1003D00001CB48BF00F8012B704702F0FF0343EA4E
:1003E000032242EA024200F0B1B84FF0000200B529
:1003F000134694469646203922BFA0E80C50A0E848
:100400000C50B1F12001BFF4F7AF090728BFA0E8F5
:100410000C5048BF0CC05DF804EB890028BF40F8C1
:10042000042B08BF704748BF20F8022B11F0804F03
:1004300018BF00F8012B70474FF0013C50F8042B17
:1004400051F8043B9A4221D1A2EB0C03934313EAE7
:10045000CC1317D150F8042B51F8043B9A4215D114
:10046000A2EB0C03934313EACC130BD150F8042BEB
:1004700051F8043B9A4209D1A2EB0C03934313EACF
:10048000CC13DBD04FF00000704700BFD01A01BA88
:10049000B1FA81F101F0180122FA01F0CB40C1F16B
:1004A0002001DBB2C0B2C01A2CFA01F3D11A914379
:1004B00011EAC311E6D170477047704770470000DA
:1004C000074B70B50D467B4400F065F8044628469E
:1004D00000F074F810B14FF0FF3070BD204670BDD1
:1004E000E70C000010B5203AC0F00B80B1E81850BE
:1004F000203AA0E81850B1E81850A0E81850BFF40E
:10050000F5AF5FEA027C24BFB1E81850A0E81850AC
:1005100044BF18C918C0BDE810405FEA827C24BF00
:1005200051F8043B40F8043B08BF7047D20728BF8E
:1005300031F8023B48BF11F8012B28BF20F8023BDD
:1005400048BF00F8012B70474FF000020429C0F0AB
:10055000128010F0030C3FF44AAFCCF1040CBCF154
:10056000020F18BF00F8012BA8BF20F8022BA1EB47
:100570000C01FFF73CBF5FEAC17C24BF00F8012BF0
:1005800000F8012B48BF00F8012B704701694A1C95
:1005900002610878704700B58FB0CDE901310021C4
:1005A000059105497944CDE903101146684600F0EC
:1005B000F1F80FB000BD0000E5FFFFFF007B00F089
:1005C0008000704710B542485421FFF70EFF4148A4
:1005D0005421FFF70AFF40485421FFF706FF3F4927
:1005E0003B483C4A3F4B08603D490A603A49196024
:1005F000531C0365481C1065012008653B48344ABC
:1006000039A1784400F0E8F920B9384878440A382C
:1006100000F087FA37482F4A35A1784400F0DCF91A
:1006200020B9344878440A3800F07BFA32482A4A24
:100630002FA1784400F0D0F920B92F4878440A3827
:1006400000F06FFA40232248DC000021224600F02F
:10065000A0F920B125487844543800F062FA1D48CA
:1006600022464023002100F094F920B1214878442B
:10067000543800F056FA184822461023002100F0A2
:1006800088F9002806D01C487844BDE81040563848
:1006900000F047BA10BD104870B5006D20F001049D
:1006A0000B4800F00FFA0B4800F00CFA0A4800F073
:1006B00009FA09E0206D20F00105204600F002FA59
:1006C000204600F040F82C46002CF3D170BD00000D
:1006D000B82D01200C2E0120602E01207C0000206E
:1006E000800000208400002072000000342B0000F5
:1006F00077000000232B0000132B0000754600F04C
:1007000017FAAE4605006946534620F007008546B5
:1007100018B020B5FFF7FEFDBDE820404FF0000601
:100720004FF000074FF000084FF0000B21F00701D9
:10073000AC46ACE8C009ACE8C009ACE8C009ACE81C
:10074000C0098D46704770B50446051F00F0F4F9E6
:100750000068002C14BF446870BD002C18BFAC4268
:100760003CBF20466468F8D301680A18AA4218BF43
:10077000456003D12A680546114401602868411983
:10078000A1421CBF6C6070BD61686960216808444B
:10079000286070BD2DE9F04106460024D6E90170BD
:1007A000F5688046304603E04146B847641C304651
:1007B000A8470028F8D12046BDE8F0812DE9F04790
:1007C00005460C46C86820F4201040F48000C8603C
:1007D000800602D5084600F0FCFAE06841F282018A
:1007E0004FF0FF390140022903D0204600F09AFA69
:1007F000B5E000F42041B1F5004F0FD1C00306D59C
:100800006168E06A884200D80846606006E02069B6
:10081000E0626060606900F030FCA061A0680022C6
:10082000EEB200280DDAE1688B050AD4C043A0605F
:1008300041F490302260E0606068411C61600670A5
:10084000A5E0E0689046226040F40050E060206936
:1008500068BB606900F023FC012704F12405A0B106
:10086000A08910F4407F08D0E06900F0B0F9206161
:1008700018B1E06840F4006016E0E7612561E068C7
:1008800020F4407040F480600EE0E06900F09FF9D1
:1008900000282061F1D0E06840F4006010F4407F4F
:1008A000E06002D140F48070E06020696060E06840
:1008B00025696FF0010AC1051FD56168E06A8842A9
:1008C00000D80846411B04D02246284600F034FADE
:1008D000F0BBE068010203D5E562C4E9015854E0C9
:1008E000691CE1626160E16940F48030491EC4E93D
:1008F000021030462E70BDE8F087010202D500F4E8
:1009000080320AE06068411C61600670E0680A2E6F
:1009100040F48030E06006D00022E16A60688142E5
:1009200003D90B4602E00122F7E70346A7895B1BC8
:100930007F0503D4E7699F4200DDE2B1814200D820
:100940000146E5620F1AC4E90158002B09DD00E0F9
:1009500005E022461946284600F0EEF908B148465F
:10096000C9E747B1A069E5626560C01BA061E068A6
:1009700040F01000E060E068000208D56168A069FE
:10098000E562491B08446560A0615046B3E7304604
:10099000B1E770B5C468A50713D0650211D4B2F5EC
:1009A000807F09D0B2F5007F06D0B2F5806F08D104
:1009B000012300F1240106E05D1E6FF07F46B54281
:1009C00001D3012070BD0161C361416024F47061F5
:1009D0001143C160002070BD2DE9F0410C4607466F
:1009E0001646104600F06EF82078611C61280AD087
:1009F000722802D077283CD102E00125002405E0CE
:100A00000225042402E0082448F2020511F8010B33
:100A10002B2806D0622809D011F8010C74280AD0BE
:100A20000BE045F0030544F00204EFE745F0040550
:100A300044F00104EAE744F010043846214600F08F
:100A400041FB411C15D00021316171604FF40071F0
:100A5000F560F1617061200704D530460222002163
:100A600000F0E4F8306D40F0010030653046BDE83C
:100A7000F0810020FBE72DE9F0410D460646104CC1
:100A8000206DC10704D0410804D020F00104F7E72D
:100A900022460EE0542000F09AF807000ED0206D98
:100AA00047F001010843542120653846FFF79DFCBB
:100AB0003A4629463046BDE8F0418DE70020D6E7AA
:100AC000B82D01202DE9F04704464FF000094FF002
:100AD000FF37C568D4E90486A80707D0204600F090
:100AE00055F9304600F0B6FA002802DA3846BDE87B
:100AF000F087280502D54046FFF725FE4C21204609
:100B0000FFF773FC206D20F0010020654846EEE7FA
:100B100010B50446AFF300802046BDE81040FFF753
:100B200084BB10B500F07CF9BDE8104000F072B94C
:100B300000487047B42E012000487047BC2E0120A9
:100B4000704770477047704738B504460A46002022
:100B50006946AFF30080002808BF38BD02460099FF
:100B6000204600F084F9012038BD012000F0D3B9FF
:100B7000F8B5AFF30080054600200C46102000BFFA
:100B80000646A819A0420DD9324669460020AFF3A7
:100B90000080070008BF00F0BEF90098A04218BF0F
:100BA0000546C419FFF7C8FF05600746F01D20F091
:100BB00007004619284600F053F9B44208BFF8BDB3
:100BC000A21B31463868BDE8F84000F050B970B556
:100BD0000646FFF7B1FF056806F10B0020F0070499
:100BE000B4429CBF002070BD2B466A68BAB1106841
:100BF000A04210D304F1080188423CBF50685860FD
:100C000007D35168101941601168091B01605860D1
:100C10001460101D70BD13465268002AE7D12146AA
:100C20002846FFF791FF0028DED170BD2DE9F04185
:100C3000044616460D464769007B80072ED038468D
:100C400000F02DFA50BB3EB3012E02D0022E25D16A
:100C500004E0204600F025F905441DE0384600F088
:100C60000CFAE168002841F01001E16005DA204645
:100C700000F058F80120BDE8F081C9030BD5626887
:100C8000E16A914200D81146A26911442269891A89
:100C9000814200DD08460544002D01DA0220EAE722
:100CA000E16A6068E268814206D29103E06203D59E
:100CB00022F4003141F01002A6690027AE4213DC95
:100CC000E16A814201D90B4600E0034603EB060CC2
:100CD0002369ACEB030CAC4506DD814201D98C469F
:100CE00000E084469C4505D1A760276042F02000C3
:100CF000A5620DE0AD1BE669AE1B8142A66000D97E
:100D00000846C01A281A20605819606022F0200096
:100D100003490840E060002084F84870ABE7000019
:100D2000BFCFD7FFC16821F4001141F08001C1603D
:100D300000218160016070472DE9F047814614462B
:100D40000E464FF0FF383248D5685769054209D042
:100D50003846A16900F0EAF9002811DB2C48C043AD
:100D60000540E5602B4632464946384600F0F4F926
:100D7000A16920F00042B21A11440028A16103D0F9
:100D80002046FFF7CFFF4046BDE8F08770B5044628
:100D90000569C06A6168884200D80846E16821F4A4
:100DA0002011E160C90312D5A84208D02246411B98
:100DB0002846FFF7C1FF10B14FF0FF3070BD002093
:100DC000E562C4E90150E06820F48030E060002072
:100DD00070BD10B50446C06820F02000E060A16A34
:100DE000A06988420DD02046FFF7D0FFE06820F4CC
:100DF000405040F01000E060A06AA0612069E0620D
:100E0000606044F24001E0688843E06010BD00008B
:100E100010000200002801D000F01CB8704700004C
:100E200010B5014602A000F05DF8012010BD0000E1
:100E300053494752545245443A2052656469726599
:100E400063743A2063616E2774206F70656E3A2078
:100E50000000000001491820ABBEFEE7260002009A
:100E600000210160C0E9011070471020704703465F
:100E700040688C46002818BF88423CBF0346406843
:100E8000F8D318681844884207D00CF1030020F00A
:100E90000700001D411A521A0146081D0A60FFF79B
:100EA00052BC10B50146C268900703D0900607D522
:100EB000886A0AE000F03EF801210160881E10BD3A
:100EC0008B69486818440B69C01A91F848301BB107
:100ED00091F84910401A10BD1103FCD50028FADD25
:100EE000401E10BD70B505460C460A2000E06D1C82
:100EF00000F018F835B128780028F8D102E0641C19
:100F000000F010F814B120780028F8D1BDE8704046
:100F10000A2000F007B810B500F010F8BDE8104046
:100F2000FFF778BF08B569468DF800000320ABBE17
:100F300008BD704700487047B42E012010B5012845
:100F400005D0002103A0FFF7CDFF012010BD09A1AE
:100F5000F8E7000053494752544D454D3A204F752C
:100F600074206F662068656170206D656D6F7279A1
:100F7000000000003A2048656170206D656D6F7259
:100F80007920636F72727570746564000A4909682C
:100F900001F0010171B108498039096801F00101CE
:100FA00041B100BF4FF0604109680029FAD04FF00D
:100FB0006042107070470000800E00E010B500BF66
:100FC000502080F31188BFF34F8FBFF36F8F00BFA6
:100FD00001F006FE18B14FF080500449086000BFD0
:100FE000002080F3118800BF10BD000004ED00E078
:100FF0001448006840F47000124908601248006804
:1010000040F001001049086000200F4908310860D5
:101010000D4800680D4908400B4908600C48091D3F
:101020000860081F006820F48020091F0860002065
:1010300005490C3108604FF00060024980390860B2
:101040007047000088ED00E000380240FFFFF6FE28
:101050001030002401466FF40040084420B10128FC
:1010600004D0022806D103E0002070470020FCE7EE
:101070000020FAE74FF0FF30F7E701466FF4004039
:10108000084420B1012804D0022806D103E0002042
:1010900070470020FCE70020FAE70020F8E701464F
:1010A0006FF40040084420B1012804D0022806D182
:1010B00003E0012070470120FCE70120FAE700204F
:1010C000F8E7000070B504460D4614B94FF0FF3044
:1010D00070BD20783A281AD10EA12046FFF7ACF94E
:1010E00010B948F20100F3E70CA12046FFF7A4F97C
:1010F00010B948F20200EBE70AA12046FFF79CF97D
:1011000010B948F20300E3E74FF0FF30E0E74FF09B
:10111000FF30DDE73A535444494E00003A535444FB
:101120004F5554003A5354444552520002466FF40E
:101130000040104420B1012805D0022809D105E063
:101140004FF0FF3070474FF0FF30FBE74FF0FF30BC
:10115000F8E74FF0FF30F5E72DE9F04107460C4680
:10116000154698466FF40040384420B1012806D057
:1011700002281AD10EE04FF0FF30BDE8F08105E003
:1011800014F8016B304600F0C1FD6D1E002DF7D143
:101190000020F2E705E014F8016B304600F0B0FDE6
:1011A0006D1E002DF7D10020E7E74FF0FF30E4E798
:1011B0008A68002A01DCFFF701BB521E8A604A6878
:1011C000C0B2531C4B601070704700001CB5032266
:1011D0000021012001F020F9154908600846006847
:1011E00030B100231A4619461148006801F08CF905
:1011F0000F480068B0B10020012103468022CDE9EC
:1012000000100CA10E4801F0A5FC002002210346AD
:101210008022CDE900100BA10E4801F09BFC00F0EC
:10122000AFFF02E00CA0FFF787F800BFFEE7000069
:101230000000002073656E64696E675461736B0013
:10124000A51C0008726563656976696E67546173F1
:101250006B0000004D1C00084372656174696E6785
:101260002062696E6172792073656D6170686F725A
:1012700065206661696C65640A0000002DE9F04133
:1012800005460E461C4807681C480068001D00F013
:1012900043FD50B91948006890F82C10012088408F
:1012A00017490968814316480160681C38B936B18E
:1012B00012480168091D134800F06CFD1AE07C1902
:1012C0000E4800684460BC4207D20C480168091D02
:1012D0000D48006800F044FD0CE008480168091D55
:1012E0000A48006800F03CFD09480068844201D2C9
:1012F00007480460BDE8F0811800002004000020C9
:101300001C0000207C0100200C00002008000020B0
:101310003400002010B5044600F048FD2448006861
:10132000401C234908602348006840B921480460F4
:101330000846006801280DD100F0B8F90AE01E48FF
:10134000006838B91B480068C06AE16A884201D861
:101350001848046019480068401C1849086008468D
:101360000068206494F82C10012088401449096812
:10137000084313490860E16A01EB8101114A02EB5D
:101380008100211D00F006FD00F03AFD0A480068CA
:1013900068B108480068C06AE16A884207D24FF025
:1013A000805009490860BFF34F8FBFF36F8F10BDA6
:1013B0001400002004000020200000203000002045
:1013C0001C000020C800002004ED00E010B500F073
:1013D000EDFC10480068D0B90F4800F0B1FC0F4890
:1013E00000F0AEFC0C480E4908600C480D4908603E
:1013F00000220C210A2001F00FF806490860084677
:10140000006820B108A10348006800F087FD00F0E3
:10141000F7FC10BD4800002090010020A40100202E
:101420004000002044000020546D72510000000074
:1014300010B516E000F0BAFC0C48C068C468201D66
:1014400000F06AFC0A480068401E09490860094823
:101450000068401E0749086000F0D2FC204600F0FA
:101460005EF8044800680028E4D110BD680100203F
:10147000140000201000002070B504460D46206CBA
:1014800070B1216CE0680844E0606168E0688842FF
:1014900001D32068E0602846226CE168FEF758FF1F
:1014A00070BD2DE9F04104460F4615464FF0000887
:1014B000A66B206C40B9206860BB606801F034FC0A
:1014C00080460020606025E07DB93946226CA06826
:1014D000FEF73EFF216CA0680844A060D4E901102B
:1014E000884217D32068A06014E03946226CE06877
:1014F000FEF72EFF216CE068401AE0602168E0688A
:10150000884203D2216C6068401AE060022D01D14C
:1015100006B1761E701CA0634046BDE8F08110B590
:101520000446206B00F08AFC204600F087FC10BDCA
:1015300001464A6A22B10A6B1268C2F1050000E056
:10154000002070470146084A126812680AB9012251
:1015500000E000220A600A6822B9034A1268D268D1
:10156000106800E00020704740000020094A22F087
:101570000700094A10600022074B5A60074A084BCF
:101580005A6000221A600146044A4A601A460A60FC
:1015900070470000C001002054000020F82B01001B
:1015A0005C00002000BFFFF743FF064800680128E9
:1015B000F9D94FF0805004490860BFF34F8FBFF353
:1015C0006F8FF0E7C800002004ED00E02DE9F04146
:1015D00006460D4617469846069C0DB9246000E065
:1015E0002760E66325640121204600F041FF84F86E
:1015F0004C80BDE8F0812DE9F05F82460F469046B1
:101600009B460A9E0C9C4FEA8801A522206BFEF7A0
:10161000E4FEA8F10100216B01EB800929F0070924
:1016200009F0070008B9012000E0002050B900BF10
:10163000502080F31188BFF34F8FBFF36F8F00BF2F
:1016400000BFFEE7002507E0795D04F13400415555
:10165000785D00B902E06D1C0A2DF5D300BF0021B2
:101660003D200155052E00D30426E662A664002025
:10167000E064201D00F071FB04F1180000F06DFB28
:101680002461C6F10500A06164620020206584F831
:1016900054005A465146484600F0C2FA20600B9862
:1016A00008B10B980460BDE8F09F000010B500245D
:1016B00007E004EB84010F4A02EB810000F040FBDD
:1016C000641C052CF5D30C4800F03AFB0B4800F0E5
:1016D00037FB0B4800F034FB0A4800F031FB0A48A6
:1016E00000F02EFB044809490860044808490860D6
:1016F00010BD0000C80000202C0100204001002087
:1017000054010020680100207C0100200800002016
:101710000C0000202DE9F04104460D4616461F46F8
:101720004FF0000865602461B5420CD8F01BA16938
:10173000884202D34FF0010811E0211D09480068DA
:1017400000F00EFB0BE0BE4204D2BD4202D34FF0CC
:10175000010804E0211D0448006800F001FB404638
:10176000BDE8F081440000204000002070B505462F
:1017700000F01CFBA86B08B9012400E0002400F075
:101780003FFB204670BD70B5054600F00FFBA86B0F
:10179000E96B884201D1012400E0002400F030FB15
:1017A000204670BDF8B505460F4616480068C0686B
:1017B000C468201D00F0B0FAE06901281DD1A069BD
:1017C00041192B463A462046FFF7A4FFA8B1002056
:1017D00003462A4601460090204601F067FC064673
:1017E00056B900BF502080F31188BFF34F8FBFF36D
:1017F0006F8F00BF00BFFEE700BF2046616A8847C9
:10180000F8BD00004000002070B586B06AE0039883
:10181000002867DB059C606908B9012000E0002012
:1018200010B9201D00F078FA02A800F0BBF80546B8
:1018300003980A2854D2DFE800F009050731334F36
:101840000608323400BF00BF00BF00BF0498A26981
:10185000811803462A462046FFF75CFFE8B1204680
:10186000616A8847E069012817D100200090049838
:10187000A169421800231946204601F017FC0646CC
:1018800056B900BF502080F31188BFF34F8FBFF3CC
:101890006F8F00BF00BFFEE700BF22E000BF20E067
:1018A00000BF0498A061A06908B1012000E00020F9
:1018B00050B900BF502080F31188BFF34F8FBFF3A2
:1018C0006F8F00BF00BFFEE7A06941192B462A4673
:1018D0002046FFF71FFF04E0204600F0AFFA00E0CB
:1018E00000BF00BF002203A90348006800F05CFFAE
:1018F00000288CD106B070BD48000020F8B5054620
:101900000C4600F087FC684600F04CF8064600984C
:1019100020BB44B9B54206D801F01AFB314628462F
:10192000FFF740FF1CE03CB10E480068006808B9B2
:10193000012000E000200446A91B22460A48006856
:1019400000F002FB01F004FB50B94FF08050074952
:101950000860BFF34F8FBFF36F8F01E001F0F8FA1B
:10196000F8BD0000440000204800002004ED00E025
:101970000A490968096809B9012100E0002121B17B
:101980004FF0FF31064A116006E004490968C96852
:10199000C868034A416811607047000008000020D1
:1019A0003400002070B5044601F014F905460748DC
:1019B0000068854204D200F00BF80120206001E0AD
:1019C0000020206001480560284670BD50000020BE
:1019D0002DE9F84332E024480068C06805682248D1
:1019E0000068C068C468201D00F096F92046616A4E
:1019F0008847E069012821D1A0694619AE4207D97C
:101A000066602461211D1848006800F0A9F915E0FE
:101A1000002003462A4601460090204601F046FB7E
:101A2000074657B900BF502080F31188BFF34F8F8E
:101A3000BFF36F8F00BF00BFFEE700BF0A4800681A
:101A4000006808B9012000E000200028C3D0064843
:101A5000D0F8008005480068034908600348C0F8D2
:101A60000080BDE8F8830000400000204400002012
:101A70000E480068401C08B9012000E0002050B961
:101A800000BF502080F31188BFF34F8FBFF36F8FDB
:101A900000BF00BFFEE700BF502080F31188BFF3F6
:101AA0004F8FBFF36F8F00BF00BFFEE76C000020B9
:101AB00008B500BF6846FFF745FD0446204600997B
:101AC000FFF71CFFFFF7A0FEF4E770B5044600F037
:101AD0006DF994F9455010E0606A08B9012000E002
:101AE000002038B904F1240001F0E6F918B100F043
:101AF0008BFA00E003E0681E45B2002DECDC00BF6D
:101B0000FF2084F8450000F07BF900F04FF994F9CC
:101B1000445010E0206908B9012000E0002048B9D5
:101B200004F1100001F0C8F908B100F06DFA681E68
:101B300045B200E001E0002DECDC00BFFF2084F89E
:101B4000440000F05DF970BD2DE9F04104464FF00E
:101B5000000800F05FFB2548006820B9FFF706FD8C
:101B600001202249086044B1083404F0070020B184
:101B700004F00700C0F108000444002C31D01C48D8
:101B800084422ED21B4F3846056801E02F462D684F
:101B90006868A04202D228680028F7D1164885421A
:101BA0001FD0386800F10808286838606868001B92
:101BB000102810D92E196868001B70606C6071685D
:101BC0000C4800E00068026852688A42FAD3026852
:101BD0003260066000BF094968680968081A074949
:101BE000086001F0B5F94046BDE8F08168000020CA
:101BF000F82B0100540000205C000020640000204D
:101C00000648006830B10549096801F14C00C96C0B
:101C1000491C016001480068704700000400002072
:101C2000001F4FF080730360001F21F00103036069
:101C3000001F054B036014380260001F6FF00203A1
:101C40000360203870470000711A00084FF4FA61F1
:101C50000848006800F05CFE07A0FEF76DFB08E096
:101C60004FF4FA610348006800F052FE08A0FEF746
:101C700063FBF5E70000002054616B696E67206923
:101C80006E69742073656D6170686F72650A00001B
:101C900054616B696E672073656D6170686F726502
:101CA0000A0000000CA0FEF747FB00231A46194665
:101CB0000D48006800F028FC0DE00CA0FEF73CFB8E
:101CC00000231A4619460848006800F01DFC4FF42E
:101CD0007A7000F05FF9F0E7496E69742073656D02
:101CE0006170686F72650A0000000020556E6C6FAD
:101CF000636B2073656D6170686F72650A00000028
:101D000000B503461846FFF741F900BD00B503468C
:101D10001846FFF73BF900BD01460A69D1E90130D9
:101D20009860D1E9010358605068884201D1886801
:101D30005060002008611068401E106010687047F5
:101D400000F1080141604FF0FF31816000F10801AE
:101D5000C16001610021016070470021016170478D
:101D600010B502460B685C1C0CB9106907E002F163
:101D7000080000E04068446824689C42FAD944683E
:101D80004C604C68A160886041600A611468641C02
:101D9000146010BD42684A6093688B609368596014
:101DA0009160086103685B1C0360704700BF5020AE
:101DB00080F31188BFF34F8FBFF36F8F00BF0E48C2
:101DC0000068401C0C49086008460068012812D1D0
:101DD0000A480068C0B208B9012000E0002050B9EC
:101DE00000BF502080F31188BFF34F8FBFF36F8F78
:101DF00000BF00BFFEE770476C00002004ED00E06C
:101E00000D48006850B900BF502080F31188BFF31F
:101E10004F8FBFF36F8F00BF00BFFEE7064800681B
:101E2000401E054908600846006820B9002080F37C
:101E3000118800BF00BF70476C00002070B50646D7
:101E40003546B6B1083D2C4600F0E4F96168094812
:101E500000E00068026852688A42FAD30268226091
:101E6000046005496068096808440349086001F096
:101E70006FF870BD540000206400002000204FF077
:101E8000E02108618861064800684FF47A71B0FB70
:101E9000F1F0401E4FF0E0214861072008617047D3
:101EA0007800002070B5FEF723FA0446102C16D3F4
:101EB00004F1E02090F8F05315480078854201DBEA
:101EC000012000E0002050B900BF502080F31188AD
:101ED000BFF34F8FBFF36F8F00BF00BFFEE70D480A
:101EE000006800F4E0600C490968884201D80120CC
:101EF00000E0002050B900BF502080F31188BFF3EC
:101F00004F8FBFF36F8F00BF00BFFEE770BD0000B3
:101F1000700000200CED00E074000020024600205C
:101F20000BE0084B53F8303033B9064B43F8301010
:101F300003EBC0035A6002E0401C0828F1D300BF45
:101F400070470000880000202DE9F04105460E464C
:101F500017462C46FFF72AFF94F94400401C10B99D
:101F6000002084F8440094F94500401C10B900207A
:101F700084F84500FFF744FFA06B28B93A46314684
:101F800004F1240000F062F82046FFF79EFDBDE852
:101F9000F081000070B504460025D4B112480068F5
:101FA00008B9012000E0002050B900BF502080F3A4
:101FB0001188BFF34F8FBFF36F8F00BF00BFFEE7E5
:101FC00000F028F900212046FFF758F900F0C0FF83
:101FD00005463DB94FF0805004490860BFF34F8F6C
:101FE000BFF36F8F70BD00003C00002004ED00E0E7
:101FF00003490968016003490968416070470000AE
:102000002C000020180000200120014908607047C2
:102010002800002070B504460D4654B900BF50207A
:1020200080F31188BFF34F8FBFF36F8F00BF00BFE6
:10203000FEE70548016818312046FFF791FE0121AF
:102040002846FFF71BF970BD0400002070B5054657
:102050000E46144655B900BF502080F31188BFF3D7
:102060004F8FBFF36F8F00BF00BFFEE706480168C8
:1020700018312846FFF78EFE0CB14FF0FF3621468F
:102080003046FFF7FBF870BD040000202DE9F04753
:1020900006460F4634464FF00109002E67D0E06C2B
:1020A00050B900BF502080F31188BFF34F8FBFF3AA
:1020B0006F8F00BF00BFFEE7A06CB84201D23D4663
:1020C00000E0A56CE06AA84251D0E06C01284ED136
:1020D00028480068844201D0012000E0002050B967
:1020E00000BF502080F31188BFF34F8FBFF36F8F75
:1020F00000BF00BFFEE7D4F82C80E562A06900F0C5
:10210000004010B9C5F10500A06108EB88011A4A2A
:1021100002EB81016069884201D1012000E00020CA
:1021200028B3201DFFF7F8FD78B9E06A00EB8000C6
:10213000114951F8200040B994F82C100120884032
:102140000E49096881430D48016094F82C10012064
:1021500088400A490968084308490860E16A01EBB8
:102160008101054A02EB8100211DFFF713FEBDE846
:10217000F087000004000020C80000201C000020A0
:102180001CB51D4800210B468222CDE900101BA181
:102190001C4800F0DFFC0446012C02D100F05AFF7D
:1021A0000446012C15D100BF502080F31188BFF3E5
:1021B0004F8FBFF36F8F00BF4FF0FF3012490860A1
:1021C00001201249086000201149086000F070F8F1
:1021D00010E0601C08B1012000E0002050B900BFF1
:1021E000502080F31188BFF34F8FBFF36F8F00BF74
:1021F00000BFFEE71CBD00003800002049444C45EC
:1022000000000000A5150008340000202000002078
:102210001800002002480068401C0149086070470F
:102220003C0000201D48006818B101201C490860CE
:1022300032E000201A4908601A480068B0FA80F0BD
:10224000C0F11F0101EB8100174A52F8200008B1CC
:10225000012000E0002050B900BF502080F3118819
:10226000BFF34F8FBFF36F8F00BF00BFFEE701EBDF
:1022700081020D4B03EB820042685268426000F11C
:1022800008024368934202D1426852684260426841
:10229000D268064B1A6000BF704700003C00002067
:1022A000280000201C000020C8000020040000209E
:1022B0001CB5524800685249884201D0012000E014
:1022C000002050B900BF502080F31188BFF34F8F1A
:1022D000BFF36F8F00BF00BFFEE748480068484962
:1022E000491E884201D0012000E0002050B900BF03
:1022F000502080F31188BFF34F8FBFF36F8F00BF63
:1023000000BFFEE73F49084600780190FF200A46DB
:1023100010700846007800909DF8000000F0F00072
:102320009DF80020904201D1012000E0002050B92A
:1023300000BF502080F31188BFF34F8FBFF36F8F22
:1023400000BF00BFFEE79DF8000000F050002E4ADD
:10235000107007202D4A106009E02C480068401ECC
:102360002A4A10609DF800004006000E00909DF87B
:10237000000000F080008028EFD024480068C0F101
:102380000700042801D1012000E0002050B900BF5F
:10239000502080F31188BFF34F8FBFF36F8F00BFC2
:1023A00000BFFEE7194800680002184A1060104696
:1023B000008800F4E0601060124A019810700F4825
:1023C0002030006840F470000C4920310860084655
:1023D000006840F070400860FFF750FD00200C4995
:1023E0000860FDF74DFF0B48006840F04040094988
:1023F0000860FDF731FF00201CBD000000ED00E08B
:1024000071C20F4100E400E0700000207400002061
:102410006C00002034EF00E02DE9F84305460E463D
:1024200090460DB1012000E0002050B900BF5020BF
:1024300080F31188BFF34F8FBFF36F8F00BF00BFD2
:10244000FEE70EB9002701E005FB06F707F1500093
:10245000FFF77AFB044644B104F1500943464A466B
:10246000314628460094FFF7B1F82046BDE8F883CE
:1024700070B505460E462C4654B900BF502080F377
:102480001188BFF34F8FBFF36F8F00BF00BFFEE710
:10249000FFF78CFCD4E90F12206801FB020060609A
:1024A0000020A0632068A060E06B401E226C2168C1
:1024B00000FB0210E060FF2084F8440084F845002F
:1024C0009EB9206908B9012000E00020A8B904F1F4
:1024D000100000F0F1FC80B14FF080500949086015
:1024E000BFF34F8FBFF36F8F07E004F11000FFF7CA
:1024F00027FC04F12400FFF723FCFFF781FC0120F7
:1025000070BD000004ED00E02DE9FF4383B00646F6
:1025100088461D464FF00009344654B900BF50208C
:1025200080F31188BFF34F8FBFF36F8F00BF00BFE1
:10253000FEE7B8F1000F01D1206C08B9012000E0DE
:10254000002050B900BF502080F31188BFF34F8F97
:10255000BFF36F8F00BF00BFFEE7022D02D1E06B1B
:10256000012801D1012000E0002050B900BF502017
:1025700080F31188BFF34F8FBFF36F8F00BF00BF91
:10258000FEE700F017FB08B9059808B9012000E044
:10259000002050B900BF502080F31188BFF34F8F47
:1025A000BFF36F8F00BF00BFFEE700BFFFF7FEFB6A
:1025B000A06BE16B884201D3022D28D12A46414607
:1025C0002046FEF76EFF0746606A08B9012000E06A
:1025D000002068B904F1240000F06EFC88B14FF0CF
:1025E000805032490860BFF34F8FBFF36F8F08E010
:1025F0003FB14FF080502D490860BFF34F8FBFF3BC
:102600006F8FFFF7FDFB012007B0BDE8F083059851
:1026100018B9FFF7F5FB0020F6E7B9F1000F04D178
:1026200001A8FFF7E5FC4FF00109FFF7E9FBFFF711
:10263000F1FDFFF7BBFB94F94400401C10B90020EA
:1026400084F8440094F94500401C10B9002084F837
:102650004500FFF7D5FB05A901A800F035FAF0B950
:102660002046FFF790F8A0B104F110000599FFF79C
:10267000D1FC2046FFF729FA00F06AFC002895D12A
:102680004FF0805009490860BFF34F8FBFF36F8F41
:102690008CE72046FFF719FA00F05AFC86E720463F
:1026A000FFF713FA00F054FC0020ADE704ED00E062
:1026B0002DE9F05F07468A4690461E463C4654B9CF
:1026C00000BF502080F31188BFF34F8FBFF36F8F8F
:1026D00000BF00BFFEE7BAF1000F01D1206C08B9BE
:1026E000012000E0002050B900BF502080F3118885
:1026F000BFF34F8FBFF36F8F00BF00BFFEE7022E07
:1027000002D1E06B012801D1012000E0002050B986
:1027100000BF502080F31188BFF34F8FBFF36F8F3E
:1027200000BF00BFFEE7FFF7BDFB00BF5021EFF386
:10273000118081F31188BFF34F8FBFF36F8F00BFFC
:102740000546A06BE16B884201D3022E23D194F998
:1027500045B0324651462046FEF7A3FE0BF101007C
:1027600088B9606A08B9012000E0002080B904F14E
:10277000240000F0A1FB58B1B8F1000F08D00120EF
:10278000C8F8000004E00BF1010040B284F84500F5
:102790004FF0010901E04FF0000900BF85F31188F7
:1027A00000BF4846BDE8F09F2DE9F74183B00546DC
:1027B0000E464FF000082C4654B900BF502080F35D
:1027C0001188BFF34F8FBFF36F8F00BF00BFFEE7CD
:1027D0000EB9206C08B9012000E0002050B900BFFC
:1027E000502080F31188BFF34F8FBFF36F8F00BF6E
:1027F00000BFFEE700F0DEF908B9059808B901202E
:1028000000E0002050B900BF502080F31188BFF3D2
:102810004F8FBFF36F8F00BF00BFFEE700BFFFF712
:10282000C5FAA76BF7B131462046FEF725FE781EA4
:10283000A063206908B9012000E0002060B904F11C
:10284000100000F039FB38B14FF080502F4908607C
:10285000BFF34F8FBFF36F8FFFF7D2FA012006B09F
:10286000BDE8F081059818B9FFF7CAFA0020F6E72D
:10287000B8F1000F04D101A8FFF7BAFB4FF001082F
:10288000FFF7BEFAFFF7C6FCFFF790FA94F9440091
:10289000401C10B9002084F8440094F94500401C05
:1028A00010B9002084F84500FFF7AAFA05A901A88D
:1028B00000F00AF9F0B92046FEF758FFA0B104F184
:1028C00024000599FFF7A6FB2046FFF7FEF800F06D
:1028D0003FFB0028A3D14FF080500C490860BFF3A4
:1028E0004F8FBFF36F8F9AE72046FFF7EEF800F0A7
:1028F0002FFB94E72046FFF7E8F800F029FB20467D
:10290000FEF734FF00288AD00020A8E704ED00E09D
:102910002DE9F34182B005464FF000082C46002611
:1029200054B900BF502080F31188BFF34F8FBFF31D
:102930006F8F00BF00BFFEE7206C08B9012000E0E8
:10294000002050B900BF502080F31188BFF34F8F93
:10295000BFF36F8F00BF00BFFEE700F02BF908B98F
:10296000039808B9012000E0002050B900BF5020B2
:1029700080F31188BFF34F8FBFF36F8F00BF00BF8D
:10298000FEE700BFFFF712FAA76BFFB1781EA06346
:10299000206810B9FFF734F96060206908B9012098
:1029A00000E0002060B904F1100000F085FA38B1B1
:1029B0004FF0805043490860BFF34F8FBFF36F8FD4
:1029C000FFF71EFA012004B0BDE8F081039898B922
:1029D0000EB9012000E0002050B900BF502080F364
:1029E0001188BFF34F8FBFF36F8F00BF00BFFEE7AB
:1029F000FFF706FA0020E6E7B8F1000F04D16846B9
:102A0000FFF7F6FA4FF00108FFF7FAF9FFF702FCBB
:102A1000FFF7CCF994F94400401C10B9002084F869
:102A2000440094F94500401C10B9002084F845008A
:102A3000FFF7E6F903A9684600F046F840BB2046D8
:102A4000FEF794FEF0B1206838B9FFF7AFF960687F
:102A500000F0CEF90646FFF7D3F904F124000399FC
:102A6000FFF7D8FA2046FFF730F800F071FA002897
:102A700088D14FF0805013490860BFF34F8FBFF3E8
:102A80006F8F7FE72046FFF720F800F061FA79E7C3
:102A90002046FFF71AF800F05BFA2046FEF766FEC4
:102AA0000028EED05EB1FFF781F92046FEF740FD29
:102AB000074639466068FFF7E9FAFFF7A1F90020F9
:102AC00081E7000004ED00E070B505460C4655B9FD
:102AD00000BF502080F31188BFF34F8FBFF36F8F7B
:102AE00000BF00BFFEE754B900BF502080F311883B
:102AF000BFF34F8FBFF36F8F00BF00BFFEE7FFF73D
:102B000055F9124802686868131A2068401C08B911
:102B1000002617E00E4928680968884204D06868D2
:102B2000904201D801260DE02068984207D920681C
:102B3000C01A20602846FFF75BFA002602E000205A
:102B400020600126FFF75CF9304670BD18000020B8
:102B50002C0000202DE9FF4F85B08046894617469E
:102B6000DDE912ABB800FEF7EFFF064656B158207C
:102B7000FEF7EAFF04460CB1266304E03046FFF797
:102B80005DF900E000247CB10020CDE900ABCDE987
:102B900002403A4649464046089BFEF72CFD204637
:102BA000FEF7B8FB012501E04FF0FF35284609B0DC
:102BB000BDE8F08F0549096809B9012005E004491D
:102BC000096809B9022000E00020704720000020B9
:102BD0003C000020014908687047000018000020F0
:102BE0002DE9F0414FF0000844480068002877D1F3
:102BF00043480068451C4248056015BB41480068D1
:102C0000006808B9012000E0002050B900BF502042
:102C100080F31188BFF34F8FBFF36F8F00BF00BFEA
:102C2000FEE7384807683848006836490860364883
:102C3000076036480068401C34490860FEF798FE7B
:102C400000BF3348006885423CD300BF2D48006870
:102C5000006808B9012000E0002020B14FF0FF30EB
:102C60002B4908602DE027480068C068C468666882
:102C7000B54202D22648066023E0201DFFF74CF83B
:102C8000A06A18B104F11800FFF746F894F82C1068
:102C9000012088401F49096808431E490860E16A0D
:102CA00001EB81011C4A02EB8100211DFFF772F844
:102CB0001A49E06A0968C96A8842C7D34FF0010817
:102CC000C4E700BF15480068C06A00EB80001249E5
:102CD00051F82000012801D94FF0010805E0FFE775
:102CE0000F480068401C0E4908600E48006808B193
:102CF0004FF001084046BDE8F08100003C00002094
:102D000018000020080000200C0000202C000020EB
:102D1000340000201C000020C80000200400002017
:102D2000240000202800002070B505462C4600260F
:102D3000002D55D02B480068844201D1012000E0CD
:102D4000002050B900BF502080F31188BFF34F8F8F
:102D5000BFF36F8F00BF00BFFEE7E06C50B900BF4C
:102D6000502080F31188BFF34F8FBFF36F8F00BFE8
:102D700000BFFEE7E06C401EE064A16CE06A8842A0
:102D80002ED0E06C60BB201DFEF7C6FF78B9E06A6C
:102D900000EB8000144951F8200040B994F82C1041
:102DA0000120884011490968814310480160A06CE6
:102DB000E062E06AC0F10500A06194F82C100120E7
:102DC00088400A490968084308490860E16A01EB3C
:102DD0008101054A02EB8100211DFEF7DBFF012680
:102DE000304670BD04000020C80000201C000020F8
:102DF00070B505462C460026002D54D02B49E06ABC
:102E00000968C96A884247D2A06900F0004028B921
:102E100026480068C06AC0F10500A061E16A01EBC4
:102E20008101234A02EB81016069884201D10120BE
:102E300000E0002050B3201DFEF76EFF78B9E06A75
:102E400000EB80001A4951F8200040B994F82C108A
:102E500001208840174909688143164801601348DA
:102E60000068C06AE06294F82C1001208840114983
:102E7000096808430F490860E16A01EB81010C4AC7
:102E800002EB8100211DFEF785FF03E00748006883
:102E9000C06AE062012606E00449A06C0968C96ABC
:102EA000884200D20126304670BD00000400002098
:102EB000C80000201C00002070B50646F068C468F9
:102EC00054B900BF502080F31188BFF34F8FBFF378
:102ED0006F8F00BF00BFFEE704F11800FEF71CFF74
:102EE00015480068A8B9201DFEF716FF94F82C10AD
:102EF0000120884011490968084310490860E16AC7
:102F000001EB81010E4A02EB8100211DFEF742FF19
:102F100004E004F118010B48FEF73CFF0A49E06A9F
:102F20000968C96A884204D9012501200749086057
:102F300000E00025284670BD3C0000201C00002059
:102F4000C8000020540100200400002028000020B8
:102F500070B5002400263648006850B900BF5020E4
:102F600080F31188BFF34F8FBFF36F8F00BF00BF97
:102F7000FEE7FEF71BFF2E480068401E2C49086044
:102F80000846006800284FD12A48006800284BD026
:102F900024E02948C068C46804F11800FEF7BCFEAC
:102FA000201DFEF7B9FE94F82C100120884023491B
:102FB0000968084321490860E16A01EB8101204A60
:102FC00002EB8100211DFEF7E5FE1E49E06A09685B
:102FD000C96A884202D301201B490860164800686C
:102FE00008B9012000E000200028D2D00CB1FEF783
:102FF000BFFC1648056865B100BFFFF7F1FD10B1D1
:103000000120114908606D1E002DF6D100200F49E6
:1030100008600D48006838B1012630070C49086087
:10302000BFF34F8FBFF36F8FFEF7EAFE304670BDE0
:103030003C00002014000020540100201C0000204F
:10304000C8000020040000202800002024000020E8
:1030500004ED00E01CB50024FEF7B8F90E48006846
:1030600058B10E48022100234FF48272CDE90010BE
:103070000BA10D48FFF76EFD044654B900BF502068
:1030800080F31188BFF34F8FBFF36F8F00BF00BF76
:10309000FEE720461CBD0000480000204C00002038
:1030A000546D722053766300B11A00082DE9FE4377
:1030B00004460D4616461F46DDF828804FF00009ED
:1030C00054B900BF502080F31188BFF34F8FBFF376
:1030D0006F8F00BF00BFFEE71448006810B3009573
:1030E00001960294062D15DAFFF764FD022808D137
:1030F0000023424669460D480068FFF705FA8146FD
:1031000010E000231A46694608480068FFF7FCF9FA
:10311000814607E000233A46694604480068FFF705
:10312000C7FA81464846BDE8FE83000048000020FB
:103130004FF04070E1EE100A70473A535444494E44
:10314000003A5354444F5554003A53544445525254
:10315000000000007431000800000020880000001A
:10316000C4010008FC3100088800002090340100F0
:10317000E001000800000000000000000000000066
:10318000000000000000000000000000000000003F
:10319000000000000000000000000000000000002F
:1031A000000000000000000000000000000000001F
:1031B000000000000000000000000000000000000F
:1031C00000000000000000000000000000000000FF
:1031D0000000000000000000F82B010000000000CB
:1031E000AAAAAAAA00000000000000000024F4001F
:0C31F000000000000000000000000000D3
:04000005080002F9F4
:00000001FF
